:020000040800F2
:1000000000040020A1010008A3010008A3010008CA
:10001000A3010008A3010008A3010008A301000830
:10002000A3010008A3010008A301000801160008AD
:10003000A3010008A3010008A3010008A301000810
:10004000A3010008A3010008A3010008A301000800
:10005000A3010008A3010008A3010008A3010008F0
:10006000A3010008A3010008A3010008A3010008E0
:10007000A3010008A3010008A3010008A3010008D0
:10008000A3010008A3010008A3010008A3010008C0
:10009000A3010008A3010008A3010008A3010008B0
:1000A000A3010008A3010008A3010008A3010008A0
:1000B000011A0008A3010008A3010008A301000819
:1000C000A3010008A3010008A3010008A301000880
:1000D000A3010008A3010008A3010008A301000870
:1000E000A3010008A3010008A3010008A301000860
:1000F000A3010008A3010008A3010008A301000850
:10010000A3010008A3010008A3010008A30100083F
:10011000C1180008A3010008A3010008A3010008FA
:10012000A3010008A3010008A3010008A30100081F
:10013000A3010008A3010008A3010008A30100080F
:10014000A3010008A3010008A3010008A3010008FF
:10015000A3010008A3010008A3010008A3010008EF
:10016000A3010008A3010008A3010008A3010008DF
:10017000A3010008A3010008A3010008A3010008CF
:10018000A3010008A3010008A3010008A3010008BF
:10019000A3010008A3010008A3010008A3010008AF
:1001A00002E000F000F8FEE772B6294880F3088804
:1001B000284880F30A88284880F30988274880F374
:1001C0000B88274827490860022080F31488BFF372
:1001D0006F8F01F0DDFC01F073FA4FF055301D49CF
:1001E0001B4A91423CBF41F8040BFAE71B491A4AEB
:1001F00091423CBF41F8040BFAE71B491B4A1C4BD8
:100200009A423EBF51F8040B42F8040BF8E7002075
:100210001849194A91423CBF41F8040BFAE701F032
:100220006FFC01F0ADFC154C154DAC4203DA54F8EF
:10023000041B8847F9E700F00BFF124C124DAC424B
:1002400003DA54F8041B8847F9E701F091BC000079
:10025000000400200000002000080020000400200E
:100260000000000808ED00E0BC1C000800080020A9
:100270000008002000080020600C0020A0010008F9
:10028000A0010008A0010008A00100082DE9F04F1E
:10029000C1F80CD0D0F80CD0BDE8F08F002383F368
:1002A00011882846A047002001F0BAF9FEE701F0C6
:1002B000E7F900DFFEE70000844641EA000313F09F
:1002C000030349D1403A23D30B6803604B68436072
:1002D0008B688360CB68C3600B6903614B694361C2
:1002E0008B698361CB69C3610B6A03624B6A4362AA
:1002F0008B6A8362CB6AC3620B6B03634B6B436392
:100300008B6B8363CB6BC36340304031403ADBD2AD
:1003100030320BD30B6803604B6843608B6883609B
:10032000CB68C36010301031103AF3D20C3205D3D1
:1003300051F8043B40F8043B043AF9D2043208D0A7
:10034000D2071CBF11F8013B00F8013B01D30B8819
:1003500003806046704700BF082A13D38B07B1D0D3
:1003600010F00303AED0C3F10403D21ADB071CBFA5
:1003700011F8013B00F8013BA4D331F8023B20F80F
:10038000023B9FE7043AD9D3013A11F8013B00F848
:10039000013BF9D20B7803704B7843708B788370F4
:1003A00060467047000000000000000000000000F0
:1003B000F0B4CB064FF001064FF000034FF00F0CE6
:1003C00001F00F0548BF45F0030506FA03F111429D
:1003D00009D0046899000CFA01F724EA070405FA29
:1003E00001F1214301600133082BEED101264FF0CA
:1003F0000F0C06FA03F111420AD099004468203923
:100400000CFA01F724EA070405FA01F121434160DF
:100410000133102BEDD1F0BC704700BF000000008D
:10042000FEE700BF00000000000000000000000028
:10043000202330B483F311880B4B4942D3E90045A4
:10044000281A0840821AA24207D3954205D35A605F
:10045000002383F3118830BC70470020002383F30E
:10046000118830BC704700BF280C0020000000003D
:10047000024A136843F08003136070470C4C00403D
:10048000202383F311880D4B5B6813F4006302D1C2
:1004900083F311887047EFF309834FF08072203B9C
:1004A000DA6183F30988064A1168D268896892681C
:1004B00091428CBF034A044A9A61704700ED00E004
:1004C000580A0020AF020008B20200080000000035
:1004D000084B10B4D3E900424942101A0840A04228
:1004E00004D3824202D310BC58607047002010BC75
:1004F000704700BF280C0020000000000000000032
:100500000E4A0F4B91685B6882685B1A9B1AC2683F
:1005100030B4D0E9044541680132E418C0E9023240
:10052000026845F100058B4288BF43609342C0E9F1
:10053000044530BC38BF0360704700BF300C00205A
:10054000001000E0000000000000000000000000BB
:10055000014B5B6883607047001000E00000000002
:10056000012914BF6FF01300002070470000000045
:10057000022AF0B5144638BF02244FF0000E0226BE
:10058000144B154F03F11005D96145601D69DFF863
:1005900050C08260114A056068600D193D601432D8
:1005A00042F814ECCCF8006015681861681A8442AF
:1005B00002D9F0BD2946054601363144396010683C
:1005C000411BB142F6D2022EF3D95A6B42F001021E
:1005D0005A63F0BD580A002034000040100000406B
:1005E0000C000040000000000000000000000000BF
:1005F000202383F3118891F828300C2B10D8DFE8E2
:1006000003F02A0F0F260B070F0B0F0F0F0F0B0016
:10061000CA6A936801339360D1E9003213605A606B
:10062000002210B44FF0FF348B698868CC6281F8E7
:1006300028201B689A688242FBD25A680020C1E9D0
:1006400000321160596080F3118810BC704700229D
:10065000CB6A1A60E4E7002383F31188704700BF78
:1006600000228369816880F828201B689A688A4282
:10067000FBD25A68C0E9003210605860704700BF72
:10068000F8B5154F57F8044FBC421FD00546002659
:1006900004E00B2A1BD02468BC4217D0D4E90332F3
:1006A0002B431542E360F6D0D4E90103C16B90F807
:1006B00028200B430A2AC363EBD1C26A1342EAD053
:1006C000C662FFF7CDFF2468BC42E7D1F8BDC26A1D
:1006D00032EA0303DFD1F3E7000800200000000046
:1006E000022938BF022110B40E4C43180E4A236071
:1006F0001368181A814201D910BC704702210131D8
:10070000C81820601068C31A8B4208D20229F3D996
:10071000064A10BC536B43F0010353637047034612
:10072000EDE700BF3400004024000040580A0020DC
:100730000EB42DE9F04F86B00FAF57F8044B2246A8
:1007400012F8011B0297002900F043824FF0000BC2
:10075000C04D0CE02B68BF48DB6814460BF1010B61
:100760009847224612F8011B002900F0C180252974
:10077000F0D163782D2B08BFA21C13780CBF4FF06B
:10078000010C4FF0000C2B2B05BF012653780026DF
:100790009219302B05BF994653784FF0200901324A
:1007A0002A2B40F0AE8057F8041B5378941C2E2B54
:1007B00000F03281002203F0DF004C2800F0B4800A
:1007C000A3F1440EBEF1340F00F29D81DFE81EF06C
:1007D00067019B019B019B019B0167019B019B01A1
:1007E0009B019B019B019F0135009B019B019B018C
:1007F0009B0196009B019B0135009B019B019B0186
:100800009B019B019B019B019B019B019B01530150
:1008100067019B019B019B019B0167019B019B0160
:100820009B019B019B019F0135009B019B012F01B7
:100830009B0196009B019B0135004FF0100E57F86D
:10084000040B0DF1170300E033468046B0FBFEF0C9
:100850000EFB108A0AF13002392AC8BF0AF13702AA
:10086000D2B2F04503F1FF3603F8012CECD20DF1C2
:10087000170E9A4673460DF10C089E1B40465346D0
:1008800001E013F8012B734500F8012BF9D1891B06
:10089000013E21EAE17ABCF1000F04D10029CAF13E
:1008A000000A00F34881002E0FDB731C43440194BF
:1008B0001C462A6818F8011B2846D2689047A045B4
:1008C000F7D10BF1010B019CB344BAF1000F3FF4D7
:1008D00048AF56462B6849462846DB689847013E94
:1008E000F8D1224612F8011BD34400297FF43FAF10
:1008F000584606B0BDE8F04F03B070474FF00A0EFF
:100900009DE7541C002BF3D00021A3F13002D2B29A
:10091000092A01EB81003FF64AAF14F8013B02EBD4
:100920004001002BF1D1E3E714F8013B002BDFD0AD
:10093000A3F14400342800F2E6800FF2080E5EF8BE
:1009400020F000BF9F0A0008070B0008070B0008F3
:10095000070B0008070B00089F0A0008070B000898
:10096000070B0008070B0008070B0008070B00081F
:100970000F0B00083B080008070B0008070B0008D6
:10098000070B0008070B0008FD080008070B00080C
:10099000070B00083B080008070B0008070B0008BE
:1009A000070B0008070B0008070B0008070B0008DF
:1009B000070B0008070B0008070B0008070B0008CF
:1009C000770A00089F0A0008070B0008070B0008B9
:1009D000070B0008070B00089F0A0008070B000818
:1009E000070B0008070B0008070B0008070B00089F
:1009F0000F0B00083B080008070B0008070B000856
:100A00002F0A0008070B0008FD080008070B000864
:100A1000070B00083B0800082378002B3FF468AF61
:100A20002A2B77D1637857F8042B0234C3E657F8A2
:100A3000048BB8F1000F00F0C28098F80030002A53
:100A400040F0AD80002B00F0AE8047F6FE724646C7
:100A500004E000BF00080020D34205D416F8010FBF
:100A6000A8EB06030028F7D1A6EB0806891B4FF078
:100A70002009013E0DE74FF0200957F8043B0139EA
:100A80008DF80C3021EAE17ABCF1000F03D1002986
:100A9000CAF1000A7DDC00260DF10C0805E757F8C5
:100AA00004EBBEF1000F6ADB002E00F08E802B23DA
:100AB0000DF10D068DF80C300DF10C0806F10B034D
:100AC0001A460193474BF246A3FB0E03DB08184678
:100AD00003EB8303AEEB43033033DBB2BAF1090F10
:100AE000864602F8013DEDDC0198801A304401E0B1
:100AF00012F8013F06F8013B8642F9D1A6EB080641
:100B0000891B013EC5E68DF80C300139BAE74FF07C
:100B1000080E94E600220134A3F13000C0B2092887
:100B200002EB820E3FF647AE14F8013B00EB4E029B
:100B3000002BF1D1DCE6CDF804A098F800102D29A7
:100B400010D02B290ED02B6849462846DB689847E1
:100B50001AF1010AF7D1019B002EABEB030BBFF694
:100B6000A4AEFEE5B9F1300FEDD12A681E48D26877
:100B7000904708F101080BF1010B013EE3E72D233B
:100B8000CEF1000E8DF80C300DF10D060DF10C08B4
:100B900094E76646CDF804A00DF10C08CDE713B13B
:100BA000013A7FF554AF21EAE17ABCF1000F03D19D
:100BB0000029CAF1000A0EDC4FF0200985E6DFF8B3
:100BC0002C80002A3FF441AFEAE70DF10C084646BD
:100BD00074E78B468CE64FF020094FF0FF36CDF8D6
:100BE00004A0AAE7CDCCCCCC00080020AC1B0008A8
:100BF00030B40125074BD9681A6881F828001468B9
:100C00001046636082F828501C6030BCDA60FFF741
:100C10003DBB00BF580A002000000000000000009B
:100C20002DE9F043394D4B1CD5F80C9087B041D0DD
:100C3000A846002758F8102FCDE904970646344BF4
:100C40003448424500680C46039355D0EB699768D9
:100C5000C31ACB1838BF1C46A74232D893689C42AF
:100C600004D91268E41A9368A342FAD36F464FF08E
:100C7000FF300294D2E901310C1BCDE900231F6043
:100C8000C2E90174A8613046FFF7B2FF009B63B16F
:100C90002A69BA4219D0DDE901144FF0FF309A6891
:100CA0000B602244C3E90112A861D9F82C0007B0F7
:100CB000BDE8F083FFF79CFFD9F82C0007B0BDE832
:100CC000F083FFF70DFD2A69C8E700212B61C3F807
:100CD00004802A690091424515D0936802990D4815
:100CE0000B449360E9690068421A9342DDD9091AFE
:100CF0001944FFF7F5FCD8E76F460A460146384627
:100D0000FFF736FCBFE7044B1960CEE7580A002016
:100D1000F1050008240000400C0000400000000025
:100D2000084AD26851B1034610B44468C2E90004CD
:100D30002260042010BC5A60FFF772BF4FF0FF30F2
:100D4000704700BF580A00200000000000000000AB
:100D5000F8B504460F461646202383F3118805E0B4
:100D600031462046FFF7DCFF002817DBA568002D81
:100D7000F6D06269A368511C013B6161A3601770E2
:100D8000D4E904329A4224BFE3686361E3690BB19A
:100D900020469847002080F31188F8BD85F311881C
:100DA000F8BD00BF000000000000000000000000CF
:100DB0003030FFF7CDBF00BF000000000000000092
:100DC0004FF0FF323030FFF7C3BF00BF000000001C
:100DD00070B5202305460E4683F3118805E03146A1
:100DE0002846FFF79DFF002818DBAC68002CF6D0E2
:100DF000A969AB6828694A1C013B8242AB6028BFE5
:100E0000EB68AA610C7828BFAB61EB690BB128468F
:100E10009847002383F31188204670BD84F311881E
:100E200070BD00BF000000000000000000000000D6
:100E30000C30FFF7CDBF00BF000000000000000035
:100E40004FF0FF310C30FFF7C3BF00BF00000000C0
:100E50002DE9F04F85B04FF02009CDE90232C76986
:100E600089F31188AAB304460E464FF0000ADDF854
:100E70000CB0A268934598BF5D46D4E9042088BFB2
:100E8000A568A2EB0008A84544D829D2A5EB080321
:100E9000424631460193FFF70FFA06EB0801DDF8F1
:100EA0000480E0684246FFF707FA4346A268E1681B
:100EB000521BCB186361A2600FB12046B8478AF37A
:100EC0001188ABEB050B2E4489F31188BBF1000FA1
:100ED000CFD10023039883F3118805B0BDE8F08FCC
:100EE0002A463146FFF7E8F9E2686261A268521BC0
:100EF000A260002DE0D120460299FFF711FF0028E3
:100F0000B7D0039BA3EB0B00002383F3118805B03C
:100F1000BDE8F08F2A463146FFF7CEF962692A44D0
:100F20006261E3E700000000000000000000000034
:100F30003030FFF78DBF00BF000000000000000050
:100F40004FF0FF333030FFF783BF00BF00000000D9
:100F50002DE9F04F85B04FF02009CDE90232C76985
:100F600089F31188002A35D004460E464FF0000A56
:100F7000DDF80CB0A268A169934598BF5D4622696F
:100F800088BFA568A2EB0108A84544D829D2A5EBE3
:100F90000803424630460193FFF78EF906EB08003E
:100FA000DDF80480E1684246FFF786F94346A2680F
:100FB000E168521BCB18A361A2600FB12046B8476D
:100FC0008AF31188ABEB050B2E4489F31188BBF132
:100FD000000FCFD10023039883F3118805B0BDE83B
:100FE000F08F2A463046FFF767F9E268A261A268EF
:100FF000521BA260002DE0D120460299FFF790FE1F
:101000000028B7D0039BA3EB0B00002383F31188C8
:1010100005B0BDE8F08F2A463046FFF74DF9A269CA
:101020002A44A261E3E700BF0000000000000000C6
:101030000C30FFF78DBF00BF000000000000000073
:101040004FF0FF330C30FFF783BF00BF00000000FC
:101050004FF0E02300224FF0FF312DE980485C681B
:1010600089B0930003F1604303F561439442C3F8F0
:10107000801002F10102C3F88011F2D100224FF476
:101080008070C74C4FF0010CA14644F24F6A4FF0FC
:101090008043C44D6261A0632868C34E40EA0C00DF
:1010A00049F8046BA2622860C04804F5157B056806
:1010B000E46245EA0C0505600568246525F0010534
:1010C0000560BB48C4F840B0C0F800A018684FF0F5
:1010D000805E4FF04008DFF840A3002620F070004B
:1010E0000027C4F80490C4F84CA004251860B14847
:1010F000D3F80090C4F8540204F10C00C4E90300D2
:1011000004F15400C4E90800A06104F5AA70C4E920
:101110001100E061E06304F13000C4E90C0084F8E0
:1011200008C0A548C3F80090D3F80090C3F8009019
:1011300001601868DFF8E49220F4407018601868C5
:101140001860D9F8000040EA0C00C9F800001868DF
:10115000DFF8CC9240F080001860186840EA0C007C
:101160001860964B83F81C83C3F880E1C3F800E055
:10117000CDE90322C9E90122CDE906670592029172
:1011800089F800C002AE3046FFF7E2F9FFF7B8F980
:10119000013DF8D14FF0140E4FF01C0C0427884984
:1011A000DFF88082874BA8EB010098608648874A69
:1011B000C0E9001859608649C2F830C0196002F1D0
:1011C0003C0C03EB0E01C3E90511824802F1240136
:1011D000C2F83CC002F1400C5162C2F840C002F1BA
:1011E000280102F1440CC3E90355DD6102F110034B
:1011F00013619162784BC2E900227849956055618C
:10120000D562C2F818E0C2F844C0D76157631062D3
:101210009063029A1D63C9E90132996385F31188CD
:1012200062B64FF6FF0C10204FF020086C4A5B604E
:10123000D1689D6001EA0C0C6A495D634CEA0101CA
:10124000DFF8E4C1D160DCF80C10DD6141F08071A1
:10125000CCF80C10DFF8B4C15B65DCF80010DD677A
:1012600041F00101CCF800105F49D07782F822806C
:10127000086800214FF0FF324FF0800E4FF0010C54
:101280004FF0020AC3E9080158499A619965584A22
:1012900003F16C01D966C3F844E003F13C01C3F8E3
:1012A00080E003F1700EC3E91CEED960DFF87CE149
:1012B00003F11001DA654F4A03F12800C3E9041174
:1012C00003F14C019D67C3F88850186599621B6053
:1012D000C3F860E0C2E9240102F1E001C2E928217B
:1012E00002F15C01C2F88C1043494448D16744497B
:1012F000D065C2F89C1002F1B00102F19000C2F872
:10130000B01002F1B401C2E92F55C2E92D111566E2
:10131000C2F89830A3F864C083F866C0C2F888C0E9
:10132000C2F8C4C082F8AAC0D864D862A2F8A8A043
:1013300002F18000FFF794F989F800A085F3118885
:101340004FF4806218212F48FFF732F839464FF4E6
:1013500000622C48FFF72CF888F31188237A012BC0
:1013600067D002220023227283F3118826490C4899
:10137000FFF7DEF9254C264E094D63686268314659
:10138000D21A2846FFF7D4F9202383F31188214984
:101390000820FFF745FC002383F3118848E000BFD5
:1013A000000800201C100240941C0008101002408D
:1013B00028000040004C00402C00004000E100E00C
:1013C000600C00203C0C0020280C0020E00B0020CA
:1013D00031040008D1040008580A0020D41B00087A
:1013E00000ED00E00003FA0524000040E81B0008BF
:1013F00000040020000B00209D02000821040008CA
:10140000B41B000800100140BC1B0008001000E0E5
:10141000CC1B000820A10700710400081400004044
:10142000300C002000000220F0ED00E00008002059
:10143000A3E76648664902686F4642F400220260EC
:101440000868644B40F4002008600868624A20F491
:10145000002008601968614D21F4805119601968F5
:101460001960116821F440511160116811601A6807
:1014700022F4C0621A601A681A6095E80F0086E8C4
:101480000F00D5E9040187E80300554A1368C3F348
:101490008103012B03D0534544D0524B00E0524B03
:1014A0004F4808AD01680268C1F30311294411F8DF
:1014B000185C484E08A9C2F302220A4412F8201C04
:1014C00002683268EB4012F4004F23FA01F34FF444
:1014D000E1325ED05B0003F56143B3FBF2F34FF6FC
:1014E000F071C3F342020B404FF4801050253F4986
:1014F0001343384A0B6011683D4B41F00401116001
:10150000116841F008011160116841F40051116047
:1015100083F83453C3F884015860136843F0200300
:1015200013601EE71368DF034AD5956A3148916A54
:1015300015F0804F2C4B18BF0346CE0302F1280252
:101540000FD511681268C1F30311C2F303220F2AE9
:1015500001F101015244B3FBF1F308BF142202FB75
:1015600003F3254A126802F00F020132B3FBF2F3D3
:101570001B490A680868C2F383428500096812D5CE
:10158000480042F0100201D542F0200202FB033372
:1015900086E703F56143B3FBF2F34FF6F07103F016
:1015A0000F020B40A0E74900EED40F2AEED00D2A1F
:1015B00002F1020106D106215A0801FB03236FE75D
:1015C0000E4BD5E703FB01F36AE700BF1C10024096
:1015D000101002400C4C0040104C0040941B0008BE
:1015E0000410024000127A0040787D01084C00404F
:1015F00000E100E0006CDC022C10024000093D001C
:10160000EFF30983203383F30988002383F31188E0
:10161000704700BF00000000000000000000000054
:1016200038B5202383F31188124BDC68236B04F157
:1016300030059D42E06207D194F82A3083B1BDE8BD
:1016400038400F20FFF7D4BA1A6818462263FFF714
:1016500007F8236BAB42F7D194F82A30002BEED178
:1016600094F829309B07EAD1D4E9043213605A6018
:10167000E5E700BF580A002000000000000000005D
:10168000012330B400250C4A1068D16804686260F8
:1016900080F828308B69146081F828508C68D060FD
:1016A0001B689A68A242FBD830BC5A68C1E9003274
:1016B00011605960FEF7EABD580A002000000000E2
:1016C000704B70B519461A6882B042F001021A6078
:1016D0000B689B07FCD500216B4A136843F080031D
:1016E00013600191019BFF2B05D8019B01330193EE
:1016F000019BFF2BF9D90021634A136843F0900343
:1017000013600191019BFF2B05D8019B01330193CD
:10171000019BFF2BF9D900244FF47F065A49594BFE
:101720000A684FF6FF7022F003020A601A681D462D
:1017300022F0A85222F410221A60544A16600C605B
:1017400054621A6822F480221A601A6842F48032C5
:101750001A6001E0013802D02B689E03FAD5494A8D
:1017600013689D0340F18C8049484A4C0168464B00
:1017700021F0070141F0040101602168104641F0A9
:10178000805121601968444D196019681960196801
:1017900041F480611960196821F0C04121F4701191
:1017A0001960196841F0804141F4441119602369BE
:1017B0002B402361236943F4833343F049032361BE
:1017C000136843F08063136003681C01FCD5036851
:1017D0002C4A43F08073036013689901FCD52F4AAB
:1017E0002F49136843F4803313600B68DA03FCD588
:1017F0002A4A2B49136843F4003313600B689B0398
:10180000FCD5214B19461A6822F003021A601A68A7
:1018100042F002021A600B6803F00C03082BFAD1A5
:101820004FF000621F4B9A60BFF34F8F10211E4B89
:101830008022186840F0040018601C681B4844F0BF
:1018400008041C601C680C431C601C6844F02004E5
:101850001C60FEF7ADFD4FF4807210211348FEF7B7
:10186000A7FD4FF4806210211048FEF7A1FD4FF450
:10187000005210210E4802B0BDE87040FEF798BD3E
:10188000FEE700BF001002400410024008100240B2
:10189000002002401C10024000F0FEBF007000401B
:1018A0000470004000ED00E0181002400008014004
:1018B00000100140000000000000000000000000D7
:1018C0002DE9F041484CD4F854321A68950645D5B4
:1018D000DFF82481454F04F10C0621E0D4E90832F9
:1018E000934233D06269591C0132626121621D70DA
:1018F000D4E907329A4201D3A3692362E068B04277
:1019000006D000220368E3605E60C262FEF7A8FEB4
:10191000002383F31188D4F854321A6890061DD539
:10192000202383F31188D4F8543243450CBF3B681D
:101930005B686269C3F30803DDB2002ACED10420DC
:10194000FEF79EFED4E908329342CBD16269002AA9
:10195000C8D04FF40060FEF793FED9E7DB681906A4
:101960003DD5D4F854321B681A0638D52026204FAE
:10197000204D1FE0A26B206C591C0132A263A164B0
:10198000814293F8008001D3E36BA364206BB842DB
:1019900006D00022036823635F60C262FEF760FE28
:1019A0000023C5F8008083F31188D4F854321B68F3
:1019B0001B0614D586F31188D4E911239A42D9D194
:1019C000A26B002AD6D00820FEF75AFED4F8542283
:1019D0000021D36823F08003D36081F31188BDE830
:1019E000F041FEF74DBD00BF00080020247001400B
:1019F00030080020044C004000700140000000004E
:101A0000394A1368D9439B07116001D4FEF738BDEA
:101A10002DE9F047202383F31188344D344E354FA0
:101A200005F110084FF0000A2C69E9693068A368D5
:101A3000421A9A4201EB030935D3D4E90032C5F8C2
:101A40001C9013605A60C4F800A02B69434508BF7E
:101A5000C7F800A08AF311882046D4E903219047F3
:101A6000202383F311886369002BDDD03168A1EB5B
:101A70000900834226D32A6942452CD091688B42C3
:101A800004D912685B1A91689942FAD34FF0FF307B
:101A9000A36091682260CB1A516861600C60C2E952
:101AA0000143A861BEE7444505D01944091AE8611D
:101AB000A160FEF715FE002383F31188BDE8F0470F
:101AC000FEF7DEBC6B6B2A6943F0020342456B6391
:101AD00007D00346D2E74B445A1A2046FEF748FD8A
:101AE000E9E70022F9E700BF10000040580A002093
:101AF000240000400C000040000000000000000036
:101B0000F0B40026134F144D1448154B154907F136
:101B1000700C984211D91A46043951F8044F42F812
:101B2000044B9042F9D8421ED21A22F0030204322A
:101B300013449D4203D943F8046B9D42FBD867458B
:101B400005D0D7E90413D7E906051037E1E7F0BC63
:101B5000704700BF141C0008600C0020600C0020BF
:101B6000600C0020BC1C0008000000000000000009
:101B7000FEE700BF000000000000000000000000C1
:101B8000704700BF000000000000000000000000DF
:041B9000704700BFDB
:101B94000000000000000000010203040607080919
:101BA4000000000001020304286E756C6C2900001B
:101BB40069646C650000000068656C6C6F2C2063C0
:101BC400686962696F730A0025640A006330000063
:101BD400D01B00080004002000080020000B002097
:101BE400E00B00206D61696E002C403804044C0841
:101BF4000C10141C2028292A0000000000002404D2
:101C04000100040000000000000C00102830340023
:101C1400BC1C0008600C0020600C0020600C00203C
:101C2400BC1C000800000020000000200000002070
:101C3400BC1C000800000320000003200000032057
:101C4400BC1C000800000030000000300000003020
:101C5400BC1C000800000030000000300000003010
:101C6400BC1C0008000003300000033000000330F7
:101C7400BC1C000800000000000000000000000080
:101C8400BC1C000800000000000000000000000070
:101C940000000000410F000841100008C10D0008B9
:101CA400410E0008B10D0008310E0008310F000884
:081CB400311000086105000871
:04000005080001A14D
:00000001FF
