:020000040800F2
:1000000000040020A1010008A3010008A3010008CA
:10001000A3010008A3010008A3010008A301000830
:10002000A3010008A3010008A3010008811900082A
:10003000A3010008A3010008A3010008A301000810
:10004000A3010008A3010008A3010008A301000800
:10005000A3010008A3010008A3010008A3010008F0
:10006000A3010008A3010008A3010008A3010008E0
:10007000A3010008A3010008A3010008A3010008D0
:10008000A3010008A3010008A3010008A3010008C0
:10009000A3010008A3010008A3010008A3010008B0
:1000A000A3010008A3010008A3010008A3010008A0
:1000B000B11C0008A3010008A3010008A301000867
:1000C000A3010008A3010008A3010008A301000880
:1000D000A3010008A3010008A3010008A301000870
:1000E000A3010008A3010008A3010008A301000860
:1000F000A3010008A3010008A3010008A301000850
:10010000A3010008A3010008A3010008A30100083F
:10011000911C0008411C0008A3010008A30100086D
:10012000A3010008A3010008A3010008A30100081F
:10013000A3010008A3010008A3010008A30100080F
:10014000A3010008A3010008A3010008311C000856
:10015000A3010008A3010008A3010008A3010008EF
:10016000A3010008A3010008A3010008A3010008DF
:10017000A3010008A3010008A3010008A3010008CF
:10018000A3010008A3010008A3010008A3010008BF
:10019000A3010008A3010008A3010008A3010008AF
:1001A00002E000F000F8FEE772B6294880F3088804
:1001B000284880F30A88284880F30988274880F374
:1001C0000B88274827490860022080F31488BFF372
:1001D0006F8F01F035FE01F033FC4FF055301D49B3
:1001E0001B4A91423CBF41F8040BFAE71B491A4AEB
:1001F00091423CBF41F8040BFAE71B491B4A1C4BD8
:100200009A423EBF51F8040B42F8040BF8E7002075
:100210001849194A91423CBF41F8040BFAE701F032
:10022000C7FD01F005FE154C154DAC4203DA54F83C
:10023000041B8847F9E701F093F8124C124DAC42C9
:1002400003DA54F8041B8847F9E701F0E9BD000020
:10025000000400200000002000080020000400200E
:100260000000000808ED00E0701F000800080020F2
:100270000008002000080020A40F0020A0010008B2
:10028000A0010008A0010008A00100082DE9F04F1E
:10029000C1F80CD0D0F80CD0BDE8F08F002383F368
:1002A00011882846A047002001F07AFBFEE701F004
:1002B000A7FB00DFFEE70000844641EA000313F0DD
:1002C000030349D1403A23D30B6803604B68436072
:1002D0008B688360CB68C3600B6903614B694361C2
:1002E0008B698361CB69C3610B6A03624B6A4362AA
:1002F0008B6A8362CB6AC3620B6B03634B6B436392
:100300008B6B8363CB6BC36340304031403ADBD2AD
:1003100030320BD30B6803604B6843608B6883609B
:10032000CB68C36010301031103AF3D20C3205D3D1
:1003300051F8043B40F8043B043AF9D2043208D0A7
:10034000D2071CBF11F8013B00F8013B01D30B8819
:1003500003806046704700BF082A13D38B07B1D0D3
:1003600010F00303AED0C3F10403D21ADB071CBFA5
:1003700011F8013B00F8013BA4D331F8023B20F80F
:10038000023B9FE7043AD9D3013A11F8013B00F848
:10039000013BF9D20B7803704B7843708B788370F4
:1003A00060467047000000000000000000000000F0
:1003B00003460122F0B400254FF48077114C00F57C
:1003C000157643F8044B436000F10C0400F5AA7362
:1003D000C164027200F1300100F154024561C0E9CC
:1003E0000344856287630664C0E90822F0BCC0E963
:1003F0001133C0E90C11C06200658261C361C3633F
:10040000704700BF481F0008000000000000000007
:10041000F0B4CB064FF001064FF000034FF00F0C85
:1004200001F00F0548BF45F0030506FA03F111423C
:1004300009D0046899000CFA01F724EA070405FAC8
:1004400001F1214301600133082BEED101264FF069
:100450000F0C06FA03F111420AD0990044682039C2
:100460000CFA01F724EA070405FA01F1214341607F
:100470000133102BEDD1F0BC704700BF000000002D
:10048000FEE700BF000000000000000000000000C8
:10049000202330B483F311880B4B4942D3E9004544
:1004A000281A0840821AA24207D3954205D35A60FF
:1004B000002383F3118830BC70470020002383F3AE
:1004C000118830BC704700BF680F0020000000009A
:1004D000024A136843F08003136070470C4C0040DD
:1004E000024A136843F08003136070470C500040C9
:1004F00030B4544C88B00DF1200C054694E80F0040
:100500000CE90F006B4602AA103494E8030083E85C
:10051000030082E803004C4B1A68C2F38102012AEF
:1005200070D0022A36D11B68DB0370D5474B48498F
:100530001C681A6814F0804F464818BF0846D40358
:1005400010D51A681B68C2F30312C3F303230F2BE1
:1005500002F1010203F10203B0FBF2F008BF142321
:1005600003FB00F0394B1B6803F00F030133B0FBB2
:10057000F3F0354A13681168C3F3834389001268A6
:1005800047D5540043F0100301D543F0200303FB8B
:10059000000000E030482C496B1E0C6808AD0A686A
:1005A000C4F3031409682C4414F8104CC1F3C2219D
:1005B000294411F8205CC2F3022220FA04F108ACAD
:1005C000224412F8182C21FA05F5032B13D8DFE882
:1005D00003F0171B1502214B1A6892070ED01A68F8
:1005E00002F00302012A06D01A6802F00302022A6E
:1005F0001FD14FF4004008B030BC70472846FAE7DE
:100600000846F8E71348C6E721FA02F0F3E7144872
:10061000AFE75100B9D40F2BB9D00D2B03F1020273
:1006200004D10622430802FB0030B4E702FB00F0CD
:10063000B1E71B68084803F00303032B18BF002031
:10064000D9E700BF441E0008041002402C100240ED
:10065000006CDC0240787D0100127A00D410024068
:1006600000093D0000000000000000000000000044
:100670000122830903F1804303F50433196800F074
:100680001F0002FA00F008431860704700000000E5
:10069000202383F311880D4B5B6813F4006302D1B0
:1006A00083F311887047EFF309834FF08072203B8A
:1006B000DA6183F30988064A1168D268896892680A
:1006C00091428CBF034A044A9A61704700ED00E0F2
:1006D000980D0020AF020008B202000800000000E0
:1006E000084B10B4D3E900424942101A0840A04216
:1006F00004D3824202D310BC58607047002010BC63
:10070000704700BF680F00200000000000000000DC
:100710000E4A0F4B91685B6882685B1A9B1AC2682D
:1007200030B4D0E9044541680132E418C0E902322E
:10073000026845F100058B4288BF43609342C0E9DF
:10074000044530BC38BF0360704700BF700F002005
:10075000001000E0000000000000000000000000A9
:10076000014B5B6883607047001000E000000000F0
:10077000012906D0062901D1406970476FF01300A6
:1007800070470020704700BF00000000000000001C
:10079000022AF0B5144638BF02244FF0000E02269C
:1007A000144B154F03F11005D96145601D69DFF841
:1007B00050C08260114A056068600D193D601432B6
:1007C00042F814ECCCF8006015681861681A84428D
:1007D00002D9F0BD2946054601363144396010681A
:1007E000411BB142F6D2022EF3D95A6B42F00102FC
:1007F0005A63F0BD980D0020340000401000004006
:100800000C0000400000000000000000000000009C
:10081000202383F3118891F828300C2B10D8DFE8BF
:1008200003F02A0F0F260B070F0B0F0F0F0F0B00F4
:10083000CA6A936801339360D1E9003213605A6049
:10084000002210B44FF0FF348B698868CC6281F8C5
:1008500028201B689A688242FBD25A680020C1E9AE
:1008600000321160596080F3118810BC704700227B
:10087000CB6A1A60E4E7002383F31188704700BF56
:1008800000228369816880F828201B689A688A4260
:10089000FBD25A68C0E9003210605860704700BF50
:1008A000F8B50468A04220D007460D46002604E0B3
:1008B0000B2A1BD02468A74217D0D4E903322B435C
:1008C0001542E360F6D0D4E90103C16B90F828200B
:1008D0000B430A2AC363EBD1C26A1342EAD0C66251
:1008E000FFF7CEFF2468A742E7D1F8BDC26A32EA1B
:1008F0000303DFD1F3E700BF0000000000000000A9
:100900002DE9F843D0F8543204461A68950641D5CB
:100910004FF02008002600F10C0700F104091FE049
:10092000D4E9083293422CD06269591C01326261C9
:1009300021621D70D4E907329A4201D3A369236270
:10094000E068B84205D00368E3605F60C662FFF705
:1009500097FF86F31188D4F854321A68900619D597
:1009600088F31188D4F854325D686369EDB2002BC6
:10097000D6D104214846FFF793FFD4E908329342C9
:10098000D2D16269002ACFD04FF400614846FFF708
:1009900087FFDEE7DA68110639D51B681A0636D5F7
:1009A0002027002604F130051FE0A26B206C591CA3
:1009B0000132A263A164814293F8008001D3E36B0A
:1009C000A364206B854205D0036823635D60C66223
:1009D000FFF756FFD4F85432C3F8048086F3118829
:1009E000D4F854321B681B0611D587F31188D4E95B
:1009F00011239A42D9D1A26B002AD6D0D4F854221E
:100A00000021D36823F08003D36081F31188BDE80F
:100A1000F88300BF0000000000000000000000009C
:100A2000022938BF022110B40E4C43180E4A23602D
:100A30001368181A814201D910BC70470221013194
:100A4000C81820601068C31A8B4208D20229F3D953
:100A5000064A10BC536B43F00103536370470346CF
:100A6000EDE700BF3400004024000040980D002056
:100A70000EB42DE9F04FBF4E86B010AB98464FF044
:100A8000000A6821BC4D741E02930CE02B68BA4822
:100A9000DB6834460AF1010A9847264616F8011B1E
:100AA000002900F0C8802529F0D163782D2B08BFDC
:100AB000A61C33780CBF4FF0010E4FF0000E2B2B0D
:100AC00005BF0120737800203618302B05BF1F4664
:100AD0007378202701362A2B40F0B68058F8042B73
:100AE0007378B41C2E2B00F03981002103F0DF064F
:100AF0004C2E00F0BC80A3F1440CBCF1340F00F28A
:100B00009F81DFE81CF069019D019D019D019D0110
:100B100069019D019D019D019D019D01A00135007F
:100B20009D019D019D019D019E009D019D0135003E
:100B30009D019D019D019D019D019D019D019D01C5
:100B40009D019D01560169019D019D019D019D0130
:100B500069019D019D019D019D019D01A00135003F
:100B60009D019D013B019D019E009D019D01350060
:100B70004FF0100C58F8043B0DF1170100E031461E
:100B80009946B3FBFCF30CFB139B0BF130003928A7
:100B9000C8BF0BF13700C0B2CC4501F1FF3601F8F8
:100BA000010CECD90DF117098B46494603AB8E1B9E
:100BB0009C46594601E011F8010B89450CF8010BE0
:100BC000F9D199461E44A6EB0906921B22EAE27B64
:100BD000BEF1000F04D1002ACBF1000B00F34781D6
:100BE000002E15DD09EB0603CDF804A0BA46374602
:100BF00026461C462A6819F8011B2846D2689047E9
:100C0000A145F7D134463E465746DDF804A0B2442C
:100C1000BBF1000F3FF441AF5E462B6839462846D2
:100C2000DB689847013EF8D1264616F8011BDA44E6
:100C300000297FF438AF504606B0BDE8F04F03B04E
:100C400070474FF00A0C95E7741C002BF3D000227C
:100C5000A3F13001C9B2092902EB82063FF642AF87
:100C600014F8013B01EB4602002BF1D1E3E714F845
:100C7000013B002BDFD0A3F14406342E00F2E080CC
:100C80000FF2040C5CF826F0D90D0008410E0008A4
:100C9000410E0008410E0008410E0008D90D000861
:100CA000410E0008410E0008410E0008410E0008E8
:100CB000410E0008470E0008710B0008410E0008A5
:100CC000410E0008410E0008410E0008430C0008C8
:100CD000410E0008410E0008710B0008410E00088B
:100CE000410E0008410E0008410E0008410E0008A8
:100CF000410E0008410E0008410E0008410E000898
:100D0000410E0008B30D0008D90D0008410E00087F
:100D1000410E0008410E0008410E0008D90D0008E0
:100D2000410E0008410E0008410E0008410E000867
:100D3000410E0008470E0008710B0008410E000824
:100D4000410E00087D0D0008410E0008430C00080C
:100D5000410E0008410E0008710B00082378002B9B
:100D60003FF469AF2A2B71D1637858F8041B023421
:100D7000BCE600BF5D1E00080008002058F8043BD8
:100D8000002B00F0B680002940F0A4801978994625
:100D9000002900F0A58047F6FE714E4601E0CB42E7
:100DA00005D416F8010FA9EB06030028F7D1202778
:100DB00009E7202758F8043B8DF80C30013A22EA65
:100DC000E27BBEF1000F03D1002ACBF1000B7BDCEC
:100DD00001260DF10C0905E758F804CBBCF1000F12
:100DE00068DB002800F08B802B230DF10D018DF8BE
:100DF0000C30019103AB019901F10B0B58464349AB
:100E0000E146A1FB0C61C9080E4601EB8101ACEB88
:100E100041013031B9F1090FB44600F8011DEEDC93
:100E2000D9460199ABEB0006013910F801CB4845D2
:100E300001F801CFF9D10199994631440E46C2E635
:100E40008DF80C30BAE74FF0080C93E6002101341E
:100E5000A3F13006F6B2092E01EB810C3FF646AE47
:100E600014F8013B06EB4C01002BF1D1E3E6CDF881
:100E700004B099F800102D2910D02B290ED02B6822
:100E800039462846DB6898471BF1010BF7D1019BD7
:100E9000002EAAEB030A3FF7A5AEFEE5302FEED1F8
:100EA0002A681B48D268904709F101090AF1010A32
:100EB000013EE4E72D238DF80C300DF10D03019375
:100EC000CCF1000C03AB96E70126CDF804B00DF190
:100ED0000C09CEE71878B8B1013999467FF55DAFB6
:100EE0000026202722EAE27BBEF1000F3FF473AE1A
:100EF0008EE639B947F6FE71DFF818904DE703AB7F
:100F0000019378E7034BE7E79946E9E7CDCCCCCCF2
:100F100000080020741E000800000000000000000F
:100F200030B40125074BD9681A6881F82800146885
:100F30001046636082F828501C6030BCDA60FFF70E
:100F4000A5B900BF980D00200000000000000000BF
:100F50002DE9F0423C4E86B0F768002965D0436821
:100F60000A46C7E900031F604B1C476042D0B146E8
:100F7000002459F8105FCDE904743448344B4D45D2
:100F80000068039356D0F369C31ACB1834BF1C46CC
:100F90000C46AB68A34207D9FFF742FD3569AB6841
:100FA000A34204D22D68E41AAB68A342FAD3029498
:100FB000D5E901324FF0FF31121B6C46CDE90053E9
:100FC0001C60C5E90142B1610420FFF7A9FF009B45
:100FD00063B13269A24211D0DDE901144FF0FF3054
:100FE0009A680B602244C3E90112B061F86A06B046
:100FF000BDE8F0820420FFF793FFF7E7002133619B
:10100000C3F80490326900914A4519D09368029957
:101010000E480B449360F1690068421A9342E5D987
:10102000091A1944FFF7FCFCE0E74FF0FF3006B067
:10103000BDE8F0826C4601462046FFF7A9FBC3E7F6
:10104000044B1960D2E700BF980D00202400004037
:10105000110800080C000040000000000000000023
:10106000F8B504460F461646202383F3118805E0A1
:1010700031462046FFF76CFF002817DBA568002DDE
:10108000F6D06269A368511C013B6161A3601770CF
:10109000D4E904329A4224BFE3686361E3690BB187
:1010A00020469847002080F31188F8BD85F3118809
:1010B000F8BD00BF000000000000000000000000BC
:1010C0003030FFF7CDBF00BF00000000000000007F
:1010D0004FF0FF323030FFF7C3BF00BF0000000009
:1010E00070B5202305460E4683F3118805E031468E
:1010F0002846FFF72DFF002818DBAC68002CF6D03F
:10110000A969AB6828694A1C013B8242AB6028BFD1
:10111000EB68AA610C7828BFAB61EB690BB128467C
:101120009847002383F31188204670BD84F311880B
:1011300070BD00BF000000000000000000000000C3
:101140000C30FFF7CDBF00BF000000000000000022
:101150004FF0FF310C30FFF7C3BF00BF00000000AD
:101160002DE9F04F85B04FF02009CDE90232C76973
:1011700089F31188AAB304460E464FF0000ADDF841
:101180000CB0A268934598BF5D46D4E9042088BF9F
:10119000A568A2EB0008A84544D829D2A5EB08030E
:1011A000424631460193FFF787F806EB0801DDF868
:1011B0000480E0684246FFF77FF84346A268E16892
:1011C000521BCB186361A2600FB12046B8478AF367
:1011D0001188ABEB050B2E4489F31188BBF1000F8E
:1011E000CFD10023039883F3118805B0BDE8F08FB9
:1011F0002A463146FFF760F8E2686261A268521B36
:10120000A260002DE0D120460299FFF7A1FE002840
:10121000B7D0039BA3EB0B00002383F3118805B029
:10122000BDE8F08F2A463146FFF746F862692A4446
:101230006261E3E700000000000000000000000021
:101240003030FFF78DBF00BF00000000000000003D
:101250004FF0FF333030FFF783BF00BF00000000C6
:101260002DE9F04F85B04FF02009CDE90232C76972
:1012700089F31188002A35D004460E464FF0000A43
:10128000DDF80CB0A268A169934598BF5D4622695C
:1012900088BFA568A2EB0108A84544D829D2A5EBD0
:1012A0000803424630460193FFF706F806EB0800B4
:1012B000DDF80480E1684246FEF7FEFF4346A2687F
:1012C000E168521BCB18A361A2600FB12046B8475A
:1012D0008AF31188ABEB050B2E4489F31188BBF11F
:1012E000000FCFD10023039883F3118805B0BDE828
:1012F000F08F2A463046FEF7DFFFE268A261A2685F
:10130000521BA260002DE0D120460299FFF720FE7B
:101310000028B7D0039BA3EB0B00002383F31188B5
:1013200005B0BDE8F08F2A463046FEF7C5FFA2693A
:101330002A44A261E3E700BF0000000000000000B3
:101340000C30FFF78DBF00BF000000000000000060
:101350004FF0FF330C30FFF783BF00BF00000000E9
:101360004FF0E02300224FF0FF3880B5586886B078
:10137000930003F1604303F561439042C3F880801A
:1013800002F10102C3F88081F2D10127C84CC9499A
:101390002046FFF70DF8C84B0026C4F854324FF032
:1013A000A044C64DC6492846FFF702F8C54BC649BA
:1013B0001F700A68C54822F4400242F0004242F41D
:1013C00080020A60C24AC3E90166C5F8540240F2CD
:1013D0000C50C3E918421E621E635E625E639E6229
:1013E0009E63DE62DE63FFF743F94FF4E060FFF7D0
:1013F0003FF94FF48060FFF73BF944F29F104FF044
:101400008043B4494FF0805C0A684FF0400E22F0F0
:1014100001020A60B04A0021106000201A6804240A
:1014200022F070021A601A68DFF80C931A601A68CA
:101430001A60C9F800801A6822F440721A601A68AB
:101440001A6059F8182C3A4349F8182C1A68DFF832
:10145000EC9242F080021A601A683A431A609F4B7D
:1014600083F81CE3C3F880C1C3F800C0CDE90401D0
:10147000CDE90166C9E901660396CDF8008089F8D7
:1014800000706846FFF76CF96846FFF741F9013CC8
:10149000F7D14FF0140C1C2704269149DFF8A0E285
:1014A000904AAEEB010090608F48904BC0E9001E5F
:1014B0008F481F63106002EB0C00C2E9050003F1C6
:1014C0001000186103F1240003F13C07586203F196
:1014D0002800DFF870825160C2E903448549D46175
:1014E0009862009A8448DF6303F140071F6403F1A8
:1014F0004407C3E90033C9E901829C605C61DC6296
:10150000C3F818C05F64DE615E6319629963C8F84E
:101510003040C8F8380084F3118862B64FF6FF02F5
:1015200010204FF0200A754BC8F80480D968C8F81D
:1015300008401140724AC8F834400A437149DA60E1
:10154000CA68C8F81C4042F08072CA606E49C8F888
:1015500054800A68C8F87C4042F001020A60D877DB
:1015600083F822A000234FF0800C4FF0FF300121C0
:101570000227664AC8F800801268C8F844C0C8E963
:101580000823634A634BC8F8582008F16C02C8F876
:101590006C20C8F880C008F13C0208F1700CC8E962
:1015A0001CCCC8F80C20DFF8A0C108F11002C8F864
:1015B0005C30594BC8E90422C8F8180008F14C0205
:1015C00008F12800C8F85000C8F82820C8F878406A
:1015D000C8F88840C8F860C0C3E9240203F1E002FB
:1015E000C3E9283203F15C02C3F88C204B4A4C4813
:1015F000DA674C4AD865C3F89C2003F1B00203F1C6
:101600009000C3F8B02003F1B402C8F84C00C8F849
:101610002C00C3E92F44C3E92D221C66C3F898802F
:10162000A8F8641088F86610C3F88810C3F8C410CE
:1016300083F8AA1003F18000A3F8A870FFF720F93F
:1016400089F8007084F311884FF4806218213648BD
:10165000FEF7DEFE31464FF400623348FEF7D8FE57
:101660004FF4805218213048FEF7D2FE3246314600
:101670002E48FEF7CDFE8AF311882B7A012B00F05D
:10168000A980022600242E7284F31188284A294B4F
:101690001168204601F07F41116011684FF0200968
:1016A00041F01E0111601A6842F001021A604DE01B
:1016B00000080020D1040008004C0040580A002017
:1016C000E1040008B00C002004100240005000406B
:1016D00000080050101002402800004000E100E027
:1016E000A80F00207C0F0020680F0020200F002092
:1016F00091040008E1060008881E000800ED00E0E3
:101700000003FA05F0ED00E0001000E024000040C6
:101710009C1E000800040020400E00209D020008CE
:10172000810400087C1E00080010014000140140E4
:1017300084500040805000402C000040700F00207A
:1017400000000220980D0020000800201A6842F0D6
:1017500010021A60FEF7CCFE7A4B7B49A3FB0032E5
:101760007A48920CFFF784F989F311884FF480636B
:101770006968D8F80C20CDE902640091C5F804D05E
:101780000192049384F31188714F724E11E023EAA1
:101790000203E363002383F311882A683946146A3D
:1017A00030468022A0472B680246394630465B68A7
:1017B0009847D8F80C4089F31188E36B13F00202C4
:1017C000E5D102230A20E362FFF7AAFBE36B03F0F3
:1017D0000202DCE740F21370FEF74AFF40F21340CA
:1017E000FEF746FF5C4A5D4C1368384623F400233D
:1017F000136022685A4B22F48052226022682260D1
:101800001A6822F440521A601A681A60236823F496
:10181000C063236023682360FEF76AFE226812F427
:10182000004F4FF4E13278D0430003F56143B3FB3E
:10183000F2F34FF6F0721A40C3F342034FF48010F4
:10184000502448491A43454B0A601A6842F0040282
:101850001A601A6842F008021A601968424A41F494
:101860000051196082F83443C2F8840150601A684C
:1018700040F2147042F020021A60FEF7F9FE40F2C6
:101880001440FEF7F5FE3449384C0A68384B22F410
:1018900080120A602268022022F4805222602268AC
:1018A00022601A6822F440521A601A681A6023688B
:1018B00023F4C063236023682360FEF719FE2268C7
:1018C00012F4004F4FF4E13231D0430003F561438D
:1018D000B3FBF2F34FF6F0721A40C3F342034FF436
:1018E0000010502423491A43204B0A601A6842F022
:1018F00004021A601A6842F008021A6019681A4A4B
:1019000041F40051196082F83543C2F884015060F7
:101910001A6842F020021A60B3E600F56143B3FB97
:10192000F2F34FF6F0721A4003F00F0386E700F56A
:101930006143B3FBF2F34FF6F0721A4003F00F036A
:10194000CDE700BF83DE1B435C1E000800080020BB
:10195000180D0020580A0020101002400C4C0040C6
:10196000104C0040084C004000E100E00C500040EA
:10197000105000400850004000000000000000002F
:10198000EFF30983203383F30988002383F311885D
:10199000704700BF000000000000000000000000D1
:1019A00038B5202383F31188124BDC68236B04F1D4
:1019B00030059D42E06207D194F82A3083B1BDE83A
:1019C00038400F20FFF7ACBA1A6818462263FEF7BA
:1019D00057FF236BAB42F7D194F82A30002BEED19E
:1019E00094F829309B07EAD1D4E9043213605A6095
:1019F000E5E700BF980D0020000000000000000097
:101A0000012330B400250C4A1068D1680468626074
:101A100080F828308B69146081F828508C68D06079
:101A20001B689A68A242FBD830BC5A68C1E90032F0
:101A300011605960FEF72ABC980D002000000000DC
:101A4000704B70B519461A6882B042F001021A60F4
:101A50000B689B07FCD500216B4A136843F0800399
:101A600013600191019BFF2B05D8019B013301936A
:101A7000019BFF2BF9D90021634A136843F09003BF
:101A800013600191019BFF2B05D8019B013301934A
:101A9000019BFF2BF9D900244FF47F065A49594B7B
:101AA0000A684FF6FF7022F003020A601A681D46AA
:101AB00022F0A85222F410221A60544A16600C60D8
:101AC00054621A6822F480221A601A6842F4803242
:101AD0001A6001E0013802D02B689E03FAD5494A0A
:101AE00013689D0340F18C8049484A4C0168464B7D
:101AF00021F0070141F0040101602168104641F026
:101B0000805121601968444D19601968196019687D
:101B100041F480611960196821F0C04121F470110D
:101B20001960196841F0804141F41411196023696A
:101B30002B402361236943F4833343F0490323613A
:101B4000136843F08063136003681C01FCD50368CD
:101B50002C4A43F08073036013689901FCD52F4A27
:101B60002F49136843F4803313600B68DA03FCD504
:101B70002A4A2B49136843F4003313600B689B0314
:101B8000FCD5214B19461A6822F003021A601A6824
:101B900042F002021A600B6803F00C03082BFAD122
:101BA0004FF000621F4B9A60BFF34F8F40F202600C
:101BB000FEF75EFD40F20360FEF75AFD40F204605E
:101BC000FEF756FD40F20560FEF752FD802210211F
:101BD0001548FEF71DFC4FF4807210211248FEF7E5
:101BE00017FC4FF4806210210F48FEF711FC4FF4F0
:101BF000005210210D4802B0BDE87040FEF708BC4D
:101C0000FEE700BF0010024004100240081002402E
:101C1000002002401C10024000F0FEBF0070004097
:101C20000470004000ED00E0000801400010014099
:101C3000024A136801331360FEF72ABDA00F00208B
:101C400010B50C48FEF75CFE0B4C0C4B1A68236871
:101C500019050AD5D30608D54FF480610848FEF768
:101C60001FFE236823F400632360BDE81040FEF7E5
:101C70000FBD00BF580A002088500040805000402F
:101C80005C0A0020000000000000000000000000CE
:101C900008B50348FEF734FEBDE80840FEF7F8BC7F
:101CA000000800200000000000000000000000000C
:101CB000394A1368D9439B07116001D4FEF7E8BC89
:101CC0002DE9F047202383F31188344D344E354FEE
:101CD00005F110084FF0000A2C69E9693068A36823
:101CE000421A9A4201EB030935D3D4E90032C5F810
:101CF0001C9013605A60C4F800A02B69434508BFCC
:101D0000C7F800A08AF311882046D4E90321904740
:101D1000202383F311886369002BDDD03168A1EBA8
:101D20000900834226D32A6942452CD091688B4210
:101D300004D912685B1A91689942FAD34FF0FF30C8
:101D4000A36091682260CB1A516861600C60C2E99F
:101D50000143A861BEE7444505D01944091AE8616A
:101D6000A160FEF75DFE002383F31188BDE8F04714
:101D7000FEF78EBC6B6B2A6943F0020342456B632E
:101D800007D00346D2E74B445A1A2046FEF700FD1F
:101D9000E9E70022F9E700BF10000040980D00209D
:101DA000240000400C000040000000000000000083
:101DB000F0B40026134F144D1448154B154907F184
:101DC000700C984211D91A46043951F8044F42F860
:101DD000044B9042F9D8421ED21A22F00302043278
:101DE00013449D4203D943F8046B9D42FBD86745D9
:101DF00005D0D7E90413D7E906051037E1E7F0BCB1
:101E0000704700BFC81E0008A40F0020A40F0020C8
:101E1000A40F0020701F0008000000000000000058
:101E2000FEE700BF0000000000000000000000000E
:101E3000704700BF0000000000000000000000002C
:041E4000704700BF28
:101E44000000000000000000010203040607080966
:101E5400000000000102030468656C6C6F2C2063B1
:101E6400686962696F732C2025644D487A0A000002
:101E7400286E756C6C29000069646C6500000000B4
:101E840063300000841E00080004002000080020C5
:101E9400400E0020200F00206D61696E002C403838
:101EA40004044C080C10141C2028292A00000000EB
:101EB400000024040100040000000000000C0010D5
:101EC40028303400701F0008A40F0020A40F002045
:101ED400A40F0020701F0008000000200000002054
:101EE40000000020701F00080000032000000320F1
:101EF40000000320701F00080000003000000030C4
:101F040000000030701F00080000003000000030A6
:101F140000000030701F0008000003300000033090
:101F240000000330701F00080000000000000000E3
:101F340000000000701F0008000000000000000006
:101F440000000000000000005112000851130008B6
:101F5400D110000851110008C110000841110008F7
:0C1F64004112000841130008710700083A
:04000005080001A14D
:00000001FF
